:020000040000FA
:1000000053309000743091006F3092007230930042
:100010006F3094007A309500683096007530970004
:100020006B3098004F3099006C309A0065309B001F
:100030006B309C0073309D0061309E006E309F00DD
:100040006430A0007230A1004430A2006D30A300E3
:100050007930A4007430A5007230A6006F30A7007C
:100060007630A8006930A9006330AA006830AB0080
:100070001030840089001C30AC0000088800831612
:10008000081555308900AA30890088148818462838
:100090008312840A890AAC0B3D28213088003F3046
:1000A00089008316081555308900AA308900881404
:0A00B0000814881859288312080864
:00000001FF
