:020000040000FA
:020000003528A1
:080008008B180F200B181820C3
:100010000B191F208316081A2420831209000030B0
:10002000660021308C008600FF3066008B100800CF
:10003000060885008C000C0E85000B100800850951
:100040006A3081000B110800831221308800890A70
:100050008316081555308900AA30890088140811C4
:10006000831283160812831208000030660086008F
:10007000831610308500FF308600313081008312F6
:10008000003089000130880083160815553089003A
:10009000AA308900881408118312003085006A3064
:0A00A0008100F8308B0000005328A7
:00000001FF
